:020000040000FA
:040000000000712863
:100008007E1480310B1E09280A28382870168B1C8C
:100018000E280F2838282228F015BD01BD0A210016
:10002800151372172000BB01BB0A3528BD0121003A
:100038001517701572132000BB01352820000C0C11
:10004800890C0139F300F4017408003A03192D28CA
:1000580035287308003A03191A28013A0319102899
:100068003528F014F2178B102100911C3C283D28EC
:100078006D2870142000911C422843286D283508EB
:10008800803AF30080307302031D4C28013034029B
:10009800031C4F285028562820002514FF30B40789
:1000A800FF30B53D20003308803AF30080307302FA
:1000B800031D602801303202031C632864286A2863
:1000C8002000A417FF30B207FF30B33D20002417EB
:1000D80091102000A4167E10090020000308A0003B
:1000E8007528F001F101F201FC01FD012000A101D8
:1000F800A201A301A401A5012630840000308500D7
:10010800183084313C2480317E102000FA29CC2913
:1001180084314F24803184314724803120002416D3
:100128000230C2004208BD002000A4150230C200FF
:100138004208BC00F829B001B101AE01AF01AC0121
:10014800AD01AA01AB01241584313424803120008B
:10015800A4140130B4000030B50020002414043089
:10016800C2004208BC00F829A3170C0C890C0139FD
:100178003D06031DC028C128C828200023170930C0
:10018800C2004208BC00F82900300C190130BD003B
:10019800A3163D08C2004208BB00AB282316350849
:1001A800803AC20080304202031DDC28013034024C
:1001B800031CDF28E028E128B1282000A31505301A
:1001C800C2004208BC00F82900300C190130BA00FE
:1001D8003A083B06031DF128F2281D293A08C200F7
:1001E8004208BD00FF28231522000C141229A3146D
:1001F80022008C1412293D08C200C3014308003AAA
:100208000319072912294208003A0319FB28013A61
:100218000319F728033A0319122912292000231475
:100228000530B2000030B3000630C2004208BC00FE
:10023800F829B001B101AE01AF01AC01AD01AA01CD
:10024800AB01A21784312C248031C1283308803AAD
:10025800C20080304202031D332901303202031CE0
:10026800362937293E29200022170630C2004208C5
:10027800BC00F8292000A2160730C2004208BC00C2
:10028800F82922000C108C100C122000B001B101CA
:10029800AE01AF01AC01AD01AA01AB012216843158
:1002A80034248031C12884314C2480318431422463
:1002B8008031630000008431472480318231F42288
:1002C8008031250016142000A2152908803AC200A2
:1002D80081304202031D722951302802031C7529FE
:1002E800762998288331CF2380317608FD00750858
:1002F800FC007D08F6007C08F5000030F70020308F
:10030800F80083316F23803175082000C200760819
:10031800C3000A30C235C30D890B8E294208B600C6
:100328004308B7000830F5000030F6003708F80039
:100338003608F70083316F23803176082000B70034
:100348007508B6003708803AC20089304202031D9A
:10035800AF29613036020318B229B329C329220014
:100368000C16D0302000C200C930890BB929C20B45
:10037800B92900322000221522000C12C7292000BA
:10038800A21422000C1220002214A801A901982806
:1003980020003C08C200C3014308003A0319D529CC
:1003A800F8294208003A03198C28013A03199F28B2
:1003B800033A0319B828013A0319F829073A031927
:1003C800D228013A0319E828033A03192A29013ADD
:1003D800031945290F3A0319F829013A031957292E
:1003E800033A0319F829F829A117080023008C01FA
:1003F80078302100990499131908FC3902389900BA
:100408008C120C128C150C158C100C1023000C126D
:100418000C118C100C102100951324008C150C1154
:100428000B172100911391118B1727001F08F03922
:1004380004389F009C139D172100911420009101FE
:100448009201270093012200970127001D08F03927
:1004580002389D001F08F03904389F001E08F03943
:1004680004389E002400951223009D132200911346
:100478009A1323009D129E12843105248131843100
:100488004724813105302000C5000F30C400F13009
:10049800890B4C2AC40B4C2AC50B4C2AF21300308A
:1004A80020000C190130BD00BC018331CF238131FC
:1004B8007608FD007508FC007D08F6007C08F5004C
:1004C8000030F7002030F80083316F238131750840
:1004D8002000C4007608C5000A30C435C50D890B54
:1004E800712A4408B6004508B7000830F500003006
:1004F800F6003708F8003608F70083316F2381319A
:1005080076082000B7007508B6007D08803AC40058
:1005180089304402031D922A61307C020318952A0F
:10052800962AA42A22000C16D0302000C400C93014
:10053800890B9C2AC40B9C2A0032721622000C12CA
:10054800003020000C190130BB0000300C190130BC
:10055800BA008B108B17B001B101AE01AF01AC012D
:10056800AD01AA01AB01A801A9018431342481316C
:10057800CF2AF215BD01BD0A2100151372172000FC
:10058800BB01BB0AE22ABD012100151772157213BF
:100598002000BB01E22A20000C0C890C0139C400A0
:1005A800C5014508003A0319DA2AE22A4408003A44
:1005B8000319C72A013A0319BD2AE22A84314C24B7
:1005C8008131F21FE82AE92AEE2AF2142000BC0140
:1005D800BC0AF213721480318B208131E52A71280C
:1005E80020003108803AF50080307502031DFE2A8C
:1005F800083030020318012B022B0C2B013020008D
:10060800B0070030B13DF1168431342482316D2BAE
:1006180020002F08803AF50080307502031D162B44
:1006280014302E020318192B1A2B242B013020000A
:10063800AE070030AF3D71168431242482316D2B12
:1006480020002D08803AF50080307502031D2E2BFE
:100658000A302C020318312B322B3C2B013020009E
:10066800AC070030AD3DF11584312C2482316D2B5F
:1006780020002B08803AF50080307502031D462BB8
:1006880096302A020318492B4A2B542B013020009C
:10069800AA070030AB3D71158431142482316D2BCB
:1006A80020002908803AF50081307502031D5E2B71
:1006B800513028020318612B622B6C2B013020006B
:1006C800A8070030A93DF11484311C2482316D2B18
:1006D8007114F01708002000BF01F61F742B752B4A
:1006E8007C2BF509F609F50A0319F60ABF01BF0ABA
:1006F800F81F7F2B802B892BF709F809F70A0319B4
:10070800F80A0130F9007908BF06C001C10175086F
:1007180076040319902B912BC02BBE01BE0A9D2B8A
:100728000130F535F60D890B952B0130F900790864
:10073800BE07F61FA02BA12B942B0130C035C10D8D
:10074800890BA22B76087802031DAC2B750877025B
:10075800031CAF2BB02BB52B7508F7027608F83BB6
:1007680040140130F636F50C890BB62B0130BE0269
:10077800031DBF2BC02BA12B3F080319C42BC52B6E
:10078800CA2BC009C109C00A0319C10A4108F600E9
:100798004008F500080022001708FC3901389700C6
:1007A8009717171FD82BD92BD52B21009E177C30D4
:1007B8009D04A0300032890BDE2BFC3021009E0501
:1007C8001D149D149D1CE92BEA2BE62B1C08F70031
:1007D800F8017708F800F7017708FA007808FB00B5
:1007E8001B08F700F8017708FA047808FB042200D0
:1007F800971321001D107B08F6007A08F500711781
:100808000800783020009C041C151C08FC390238AC
:100818009C001C08873938389C001C15F117080003
:1008280021001708C139183897002000A1150800C1
:1008380021001708C1392438970020002115080025
:1008480021001708C139103897002000A1160800A8
:1008580021001708C1391438970020002116080014
:1008680021001708C1390E38970020002117080009
:10087800640080010131890B3D2C003421001714DC
:100888002000A114080021001710200021140800DE
:0C0898000B16701708000B12F016080079
:020000040001F9
:04000E00EC09FF38C2
:00000001FF
