:020000040000FA
:04000000000076285E
:100008007E1480310B1E09280A28382870148B1C8E
:100018000E280F28382822282514BF01BF0A2100DE
:10002800151372172000BD01BD0A3528BF01210034
:1000380015172000A4177213BD01352820000C0CD9
:10004800890C0139F300F4017408003A03192D28CA
:1000580035287308003A03191A28013A0319102899
:1000680035282417F2178B102100911C3C283D28B5
:1000780072282000A416911C4228432872283708A9
:10008800803AF30080307302031D4C280130360299
:10009800031C4F285028562820002416FF30B60786
:1000A800FF30B73D20003508803AF30080307302F6
:1000B800031D602801303402031C632864286A2861
:1000C8002000A415FF30B407FF30B53D2000911083
:1000D80022008C162000241522008C122000A41463
:1000E8007E10090020000308A0007A28F001F10121
:1000F800F201FC01FD012000A101A201A301A4015C
:10010800A50126308400003085001A30843104248B
:1001180080317E102000F929D129843115248031BD
:1001280084310E248031200024140230C400440895
:10013800BF002000A3170230C4004408BE00F729FE
:100148002317B001B101AE01AF01AC01AD01AA01A5
:10015800AB01A3160130B6000030B700200023160B
:100168000430C4004408BE00F729A3150C0C890C00
:1001780001393F06031DC128C228C92820002315BC
:100188000930C4004408BE00F72900300C190130BA
:10019800BF00A3143F08C4004408BD00AD282314C1
:1001A800F729A2173708803AC40080304402031D9B
:1001B800DF2801303602031CE228E328E428B228AD
:1001C800200022170530C4004408BE00F72900307B
:1001D8000C190130BC003C083D06031DF428F52825
:1001E80022293C08C4004408BF000429A2162200A2
:1001F8000C141729221622008C141729A215172966
:100208003F08C400C5014508003A03190C291729FD
:100218004408003A0319FE28013A0319FA28033A58
:10022800031902291729200022150530B4000030CF
:10023800B5000630C4004408BE00F729A214B20174
:10024800B301AE01AF01AC01AD01AA01AB012214AB
:100258008331FD238031C2283508803AC4008030BC
:100268004402031D392901303402031C3C293D296D
:1002780044292000A1170630C4004408BE00F7290D
:10028800200021170730C4004408BE00F7292200C7
:100298000C108C100C122000A116B201B301B00191
:1002A800B101AE01AF01AC01AD01AA01AB012B292F
:1002B80084310A24803184311224803163000000A3
:1002C80084310E24803120002908803AC40081300E
:1002D8004402031D712951302802031C7429752911
:1002E800CD2983319C2380317608FD007508FC00F8
:1002F8007D08F6007C08F5000030F7002030F80093
:1003080083313C23803175082000C4007608C5007D
:100318000A30C435C50D890B8D294408B800450835
:10032800B9000830F5000030F6003908F800380840
:10033800F70083313C23803176082000B900750826
:10034800B8007D08803AC40089304402031DAE29F4
:1003580061307C020318B129B229C22922000C1687
:10036800D0302000C400C930890BB829C40BB82983
:1003780000322000211622000C12C6292000A115E7
:1003880022000C12200021150130A8000030A9001D
:100398009D282000A11400009D2820003E08C400CC
:1003A800C5014508003A0319DA29F7294408003A33
:1003B80003199128013A0319A428033A0319B92803
:1003C800013A0319D328073A0319D528013A031922
:1003D800EB28033A03193029013A03194B290E3A3D
:1003E80003195C29F7292114080023008C017830AF
:1003F8002100990499131908FC39023899008C12C4
:100408000C128C150C158C100C1023000C120C11EE
:100418008C100C102100951324008C150C110B174F
:100428002100911391118B1727001F08F039043808
:100438009F009C139D1721009114200091019201A7
:10044800270093012200970127001D08F039023880
:100458009D001F08F03904389F001E08F039043841
:100468009E002400951223009D13220091139A13D5
:1004780023009D129E128331D223813184310E24B0
:10048800813105302000C7000F30C600F130890BDC
:100498004B2AC60B4B2AC70B4B2AF21300302000FD
:1004A8000C190130BF00BE0183319C2381317608CD
:1004B800FD007508FC007D08F6007C08F50000309A
:1004C800F7002030F80083313C2381317508200083
:1004D800C6007608C7000A30C635C70D890B702AD2
:1004E8004608B8004708B9000830F5000030F600A3
:1004F8003908F8003808F70083313C238131760841
:100508002000B9007508B8007D08803AC600893017
:100518004602031D912A61307C020318942A952A09
:10052800A32A22000C16D0302000C600C930890B3F
:100538009B2AC60B9B2A0032721622000C1200302E
:1005480020000C190130BD0000300C190130BC002E
:100558008B108B178431122481312000B001B10136
:10056800AE01AF01AC01AD01AA01AB01A801A9011F
:100578008331FD238131F21FC22AC32AC82AF2150A
:100588002000BE01BE0AF21380319020813172151D
:100598008231D1228131BF2A762820003108803A61
:1005A800F50080307502031DDB2A0830300203187D
:1005B800DE2ADF2AE92A01302000B0070030B13DE9
:1005C800F1178331FD2382313A2B20002F08803A1E
:1005D800F50080307502031DF32A28302E02031817
:1005E800F62AF72A012B01302000AE070030AF3D74
:1005F80071178331EF2382313A2B20002D08803A7E
:10060800F50080307502031D0B2B3C302C020318BB
:100618000E2B0F2B192B01302000AC070030AD3DFD
:10062800F1168331F62382313A2B20002B08803AC9
:10063800F50080307502031D232B4B302A02031866
:10064800262B272B312B01302000AA070030AB3D89
:1006580071168331E12382313A2B01302000A8073B
:100668000030A93DF1158331E82382317115080066
:100678002000C101F61F412B422B492BF509F60931
:10068800F50A0319F60AC101C10AF81F4C2B4D2BB4
:10069800562BF709F809F70A0319F80A0130F90087
:1006A8007908C106C201C3017508760403195D2BD8
:1006B8005E2B8D2BC001C00A6A2B0130F535F60D73
:1006C800890B622B0130F9007908C007F61F6D2BE2
:1006D8006E2B612B0130C235C30D890B6F2B760849
:1006E8007802031D792B75087702031C7C2B7D2B60
:1006F800822B7508F7027608F83B42140130F6366B
:10070800F50C890B832B0130C002031D8C2B8D2B1C
:100718006E2B41080319912B922B972BC209C30901
:10072800C20A0319C30A4308F6004208F500080084
:1007380022001708FC39013897009717171FA52BB7
:10074800A62BA22B21009E177C309D04A0300032DE
:10075800890BAB2BFC3021009E051D149D149D1C9C
:10076800B62BB72BB32B1C08F700F8017708F80055
:10077800F7017708FA007808FB001B08F700F80172
:100788007708FA047808FB042200971321001D104B
:100798007B08F6007A08F50072140800783020000B
:1007A8009C041C151C08FC3902389C001C0887395D
:1007B80038389C001C15F214080021001708C139AC
:1007C800183897007017080021001708C139243815
:1007D8009700F016080021001708C1391038970053
:1007E8007114080021001708C13914389700F01750
:1007F800080021001708C1390E389700F1140800C5
:10080800640080010131890B052C00342100171484
:100818007016080021001710F01508000B16701547
:0808280008000B12F014080097
:020000040001F9
:04000E00EC09FF38C2
:00000001FF
