:020000040000FA
:040000000000712863
:100008007E1480310B1E09280A28382870148B1C8E
:100018000E280F28382822282514BF01BF0A2100DE
:10002800151372172000BD01BD0A3528BF01210034
:1000380015172000A4177213BD01352820000C0CD9
:10004800890C0139F300F4017408003A03192D28CA
:1000580035287308003A03191A28013A0319102899
:1000680035282417F2178B102100911C3C283D28B5
:100078006D282000A416911C422843286D283708B3
:10008800803AF30080307302031D4C280130360299
:10009800031C4F285028562820002416FF30B60786
:1000A800FF30B73D20003508803AF30080307302F6
:1000B800031D602801303402031C632864286A2861
:1000C8002000A415FF30B407FF30B53D20002415EB
:1000D80091102000A4147E10090020000308A0003D
:1000E8007528F001F101F201FC01FD012000A101D8
:1000F800A201A301A401A5012630840000308500D7
:100108001A308331FF2380317E102000F429CC2956
:100118008431102480318431092480312000241452
:100128000230C4004408BF002000A3170230C400F6
:100138004408BE00F2292317B001B101AE01AF0196
:10014800AC01AD01AA01AB01A3160130B600003025
:10015800B700200023160430C4004408BE00F2296A
:10016800A3150C0C890C01393F06031DBC28BD28BA
:10017800C428200023150930C4004408BE00F22911
:1001880000300C190130BF00A3143F08C400440814
:10019800BD00A8282314F229A2173708803AC40002
:1001A80080304402031DDA2801303602031CDD28A2
:1001B800DE28DF28AD28200022170530C4004408B7
:1001C800BE00F22900300C190130BC003C083D0685
:1001D800031DEF28F0281D293C08C4004408BF006F
:1001E800FF28A21622000C141229221622008C14B1
:1001F8001229A21512293F08C400C5014508003A72
:100208000319072912294408003A0319F928013A61
:100218000319F528033A0319FD281229200022158D
:100228000530B4000030B5000630C4004408BE00F4
:10023800F229A214B201B301AE01AF01AC01AD01C4
:10024800AA01AB0122148331F8238031BD28350877
:10025800803AC40080304402031D3429013034023E
:10026800031C372938293F292000A1170630C4006C
:100278004408BE00F229200021170730C4004408B2
:10028800BE00F22922000C108C100C122000A116BE
:10029800B201B301B001B101AE01AF01AC01AD01D2
:1002A800AA01AB01262984310524803184310D242B
:1002B800803163000000843109248031200029083E
:1002C800803AC40081304402031D6C295130280251
:1002D800031C6F297029C829833197238031760838
:1002E800FD007508FC007D08F6007C08F50000306C
:1002F800F7002030F800833137238031750820005B
:10030800C4007608C5000A30C435C50D890B882994
:100318004408B8004508B9000830F5000030F60078
:100328003908F8003808F700833137238031760818
:100338002000B9007508B8007D08803AC4008930EB
:100348004402031DA92961307C020318AC29AD2998
:10035800BD2922000C16D0302000C400C930890BFA
:10036800B329C40BB32900322000211622000C1235
:10037800C1292000A11522000C12200021150130EE
:10038800A8000030A90098282000A114000098288F
:1003980020003E08C400C5014508003A0319D529C4
:1003A800F2294408003A03198C28013A03199F28B6
:1003B800033A0319B428013A0319CE28073A031956
:1003C800D028013A0319E628033A03192B29013AE0
:1003D800031946290E3A03195729F229211408004E
:1003E80023008C0178302100990499131908FC39ED
:1003F800023899008C120C128C150C158C100C10EC
:1004080023000C120C118C100C10210095132400E1
:100418008C150C110B172100911391118B172700C4
:100428001F08F03904389F009C139D172100911470
:1004380020009101920127009301220097012700D3
:100448001D08F03902389D001F08F03904389F0054
:100458001E08F03904389E002400951223009D13CD
:10046800220091139A1323009D129E128331CD23EB
:10047800813184310924813105302000C7000F30D3
:10048800C600F130890B462AC60B462AC70B462AF6
:10049800F213003020000C190130BF00BE01833177
:1004A800972381317608FD007508FC007D08F60069
:1004B8007C08F5000030F7002030F800833137233E
:1004C800813175082000C6007608C7000A30C63595
:1004D800C70D890B6B2A4608B8004708B9000830D1
:1004E800F5000030F6003908F8003808F7008331C5
:1004F8003723813176082000B9007508B8007D08D7
:10050800803AC60089304602031D8C2A61307C027D
:1005180003188F2A902A9E2A22000C16D030200019
:10052800C600C930890B962AC60B962A0032721665
:1005380022000C12003020000C190130BD000030E0
:100548000C190130BC008B108B1784310D248131BC
:100558002000B001B101AE01AF01AC01AD01AA01AB
:10056800AB01A801A9018331F8238131F21FBD2A0B
:10057800BE2AC32AF2152000BE01BE0AF21380313A
:100588008B20813172158231CC228131BA2A7128AF
:1005980020003108803AF50080307502031DD62A04
:1005A800083030020318D92ADA2AE42A0130200058
:1005B800B0070030B13DF1178331F8238231352B74
:1005C80020002F08803AF50080307502031DEE2ABE
:1005D80028302E020318F12AF22AFC2A01302000C2
:1005E800AE070030AF3D71178331EA238231352BD6
:1005F80020002D08803AF50080307502031D062B77
:100608003C302C020318092B0A2B142B0130200034
:10061800AC070030AD3DF1168331F1238231352B23
:1006280020002B08803AF50080307502031D1E2B30
:100638004B302A020318212B222B2C2B01302000AF
:10064800AA070030AB3D71168331DC238231352B8C
:1006580001302000A8070030A93DF1158331E323BC
:100668008231711508002000C101F61F3C2B3D2B7B
:10067800442BF509F609F50A0319F60AC101C10A5E
:10068800F81F472B482B512BF709F809F70A0319CC
:10069800F80A0130F9007908C106C201C3017508DA
:1006A80076040319582B592B882BC001C00A652BD7
:1006B8000130F535F60D890B5D2B0130F90079080D
:1006C800C007F61F682B692B5C2B0130C235C30DA0
:1006D800890B6A2B76087802031D742B750877023C
:1006E800031C772B782B7D2B7508F7027608F83BCF
:1006F80042140130F636F50C890B7E2B0130C0020E
:10070800031D872B882B692B410803198C2B8D2BF4
:10071800922BC209C309C20A0319C30A4308F60087
:100728004208F500080022001708FC390138970034
:100738009717171FA02BA12B9D2B21009E177C30EC
:100748009D04A0300032890BA62BFC3021009E05A9
:100758001D149D149D1CB12BB22BAE2B1C08F70049
:10076800F8017708F800F7017708FA007808FB0025
:100778001B08F700F8017708FA047808FB04220040
:10078800971321001D107B08F6007A08F5007214F3
:100798000800783020009C041C151C08FC3902381D
:1007A8009C001C08873938389C001C15F214080076
:1007B80021001708C1391838970070170800210060
:1007C8001708C13924389700F016080021001708C7
:1007D800C139103897007114080021001708C13971
:1007E80014389700F017080021001708C1390E388F
:1007F8009700F1140800640080010131890B002C76
:100808000034210017147016080021001710F01585
:0E08180008000B16701508000B12F0140800F3
:020000040001F9
:04000E00EC09FF38C2
:00000001FF
