:020000040000FA
:06000000000080317128B0
:100008007E1480310B1E09280A2838282000A616DD
:100018008B1C0F281028382823282616C901C90A3E
:1000280021001513F2162000C701C70A3528C90197
:10003800210015172000A615F212C70135280C0C4F
:10004800890C0139F300F4017408003A03192D28CA
:1000580035287308003A03191B28013A0319112897
:100068003528261572178B102100911C3C283D2835
:100078006D282000A614911C422843286D283F08AB
:10008800803AF30080307302031D4C2801303E0291
:10009800031C4F285028562820002614FF30BE077E
:1000A800FF30BF3D20003D08803AF30080307302E6
:1000B800031D602801303C02031C632864286A2859
:1000C8002000A517FF30BC07FF30BD3D20002517D5
:1000D80091102000A5167E10090020000308A0003A
:1000E80080317628F001F101F201FD012130840010
:1000F8000030850007308F31282780312830840070
:100108000030850024308F3128278031A0308400CA
:100118000030850020308F31282780317E10200064
:100128008231AD2A7E2A8F310C2780318F311927F1
:10013800803102302000E2006208C90025161F3015
:10014800DE009130DF008F31982780312000A5151F
:100158000230E2006208C800AA2ABA01BB01B8014D
:10016800B901B601B701B401B5018F312E2780312D
:1001780001302000BE000030BF000430E2006208F9
:10018800C8002515F330DE009030DF008F31982746
:100198008031AA2A4730DE009130DF008F3198275E
:1001A800803120000C0C890C01394906031DDD281B
:1001B800DE28EB280930E2006208C800A5143E30AA
:1001C800DE009030DF008F3198278031AA2A003076
:1001D8000C190130C9004908E2006208C700013063
:1001E800BE000030BF000430E2006208C8002514D9
:1001F8000C30DE008730DF008F3198278031AA2A43
:100208003F08803AE20080306202031D0D29013068
:100218003E02031C1029112918292000A4170430B4
:10022800E2006208C8001E29200024170530E200F9
:100238006208C800A4161F30DE009030DF008F313E
:1002480098278031AA2A00300C190130C6005C308A
:10025800DE009030DF008F3198278031200046087B
:100268004706031D3829392974294608E20062081F
:10027800C900562922000E14200024165A30DE0028
:100288009130DF008F3198278031692922000E15BF
:100298002000A4153330DE009130DF008F3198271D
:1002A800803169294908E200E3016308003A03192B
:1002B8005E2969296208003A03194A29013A031993
:1002C8003E29033A031969296929200024150530B4
:1002D800BC000030BD000630E2006208C800AA2A4F
:1002E800BA01BB01B801B901B601B701B401B50142
:1002F8008F31682780312000A4140930E200620899
:10030800C800AA2A3D08803AE20080306202031D34
:100318008F2901303C02031C922993299A29200035
:1003280024140630E2006208C800AA2A2000A31795
:100338000730E2006208C800AA2A22000E100E1137
:100348008E102000BA01BB01B801B901B601B7018E
:10035800B401B5018F312E27803109302000E20029
:100368006208C80023170030DE009030DF008F31AC
:1003780098278031AA2A8030F206F21FC429C5299D
:10038800C929A31622008C16CC29231622008C1208
:100398008F31102780318F311E278031DC302000CB
:1003A800DE009030DF008F31982780316300000035
:1003B8008F3119278031C4302000DE008730DF00FC
:1003C8008F31982780318431A2248031250016147A
:1003D8002000A3153308803AE20081306202031D31
:1003E800F72951303202031CFA29FB29AA286C305C
:1003F8002000DE009130DF008F3198278031863170
:10040800D426803176082000CB007508CA004B0836
:10041800F6004A08F5000030F7002030F800853172
:100428009B25803175082000E2007608E3000A3039
:10043800E235E30D890B1C2A6208C0006308C1007D
:100448000830F5000030F6004108F8004008F700D1
:1004580085319B25803176082000C1007508C000D1
:100468004108803AE20089306202031D3D2A61306A
:1004780040020318402A412A512A22008E14D03003
:100488002000E200C930890B472AE20B472A0032D4
:100498002000231522008E10552A2000A3142200C4
:1004A8008E1020002314B201B301AA28A2170A3023
:1004B800DE009130DF008F3198278031AA2A221779
:1004C800C430DE009030DF008F3198278031AA2AAF
:1004D800A2167E30DE009130DF008F319827803100
:1004E800AA2A22168F30DE009130DF008F3198273C
:1004F8008031AA2A20004808E200E3016308003A94
:100508000319872A752A6208003A03199728013ABD
:100518000319B128033A0319CE28013A03195A2AB4
:10052800073A03190429013A03192729033A031939
:100538008629013A0319A1290F3A0319632A013AB6
:100548000319BF29033A03196C2A752A2000A2153A
:1005580008002000E60123008C018E01783021007C
:10056800990499131908FC39023899008E130E134F
:100578008E120E128E110E118E100E108C120C127D
:100588008C150C158C100C108D130D138D160D1663
:1005980023000C120C118C100C108D120D1221005E
:1005A800951324008C150C1127008C150C150B17AE
:1005B8002100911391118B1727001F08F039043877
:1005C8009F009C139D172100911420009101920116
:1005D80093019401270093019601220097012700B7
:1005E8001D08F03902389D001F08F03904389F00B3
:1005F8001E08F03904389E002400951223009D132C
:100608002200911393139A1323009D129E128F3187
:10061800592782317212200067148F3123278231C3
:100628008F31142782318F31AA2782318030200000
:10063800E4006408FC0080308F31DC278231F2133B
:10064800323086314E2682318F314A2782318F31BE
:10065800192782310B302000D1000030D200D3019D
:10066800D30A84311824823173302000DE008730A9
:10067800DF008F3198278231E9302000DE00873093
:10068800DF008F319827823105302000E5000F30D8
:10069800E400F130890B4E2BE40B4E2BE50B4E2B6F
:1006A8007213003020000C190130C900C8018631CE
:1006B800D426823176082000CB007508CA004B0882
:1006C800F6004A08F5000030F7002030F8008531C0
:1006D8009B25823175082000E4007608E5000A3081
:1006E800E435E50D890B742B6408C0006508C1006A
:1006F8000830F5000030F6004108F8004008F7001F
:1007080085319B25823176082000C1007508C0001C
:100718004B08803AE40089306402031D952B613050
:100728004A020318982B992BA72B22008E14D0303D
:100738002000E400C930890B9F2BE40B9F2B00326B
:10074800F11622008E10003020000C190130C7006D
:1007580000300C190130C6008B108B178F31102711
:1007680082312000BA01BB01B801B901B601B70155
:10077800B401B501B201B3018F312E278231D62BD6
:100788007116C901C90A21001513F2162000C70104
:10079800C70AE92BC90121001517F115F21220002B
:1007A800C701E92B20000C0C890C0139E400E50194
:1007B8006508003A0319E12BE92B6408003A03198C
:1007C800CE2B013A0319C42BE92B721FEC2BED2B0E
:1007D800F22B71152000C801C80A721320004808BE
:1007E80066060319F82BF92B112CF1140C30480666
:1007F8000319FF2B002C112C3030D1000030D2000F
:100808004808E4006408D300843118248231711444
:1008180020004808E4006408E600F01780319620BC
:100828008231E92B8031712820005208803AD400A7
:1008380080305402031D222C643051020318252CE9
:10084800262C962C20005303031D2B2C2C2C652CB6
:10085800F2150A30F5000030F6005208F800510889
:10086800F7008531FB2584317608850075088400FA
:10087800433084078730853D00082000D4005408A1
:10088800FC0041308400873085000008D5000A301C
:10089800F5000030F6005208F8005108F7008531DD
:1008A8009B258431760885007508840043308407C9
:1008B8008730853D0008200055048F31DC278431BE
:1008C800A02C72150A30F5000030F6005208F80026
:1008D8005108F7008531FB258431760885007508B5
:1008E8008400433084078730853D00082000D40009
:1008F8005408FC000A30F5000030F6005208F800F1
:100908005108F70085319B258431760885007508E4
:100918008400433084078730853D00088F31DC2709
:100928008431A02CF21464302000D4005408FC0058
:10093800F4308F31DC2784317214080020003B0822
:10094800803AE10080306102031DAC2C08303A0285
:100958000318AF2CB02CBA2C01302000BA07003095
:10096800BB3D70148F312E2784311C2D200039088F
:10097800803AE10080306102031DC42C1430380233
:100988000318C72CC82CD22C01302000B80700301F
:10099800B93DA7168F31362784311C2D2000370822
:1009A800803AE10080306102031DDC2C0A303602F7
:1009B8000318DF2CE02CEA2C01302000B6070030A9
:1009C800B73D27168F31682784311C2D2000350844
:1009D800803AE10080306102031DF42C9630340225
:1009E8000318F72CF82C022D01302000B407003032
:1009F800B53DA7158F31882784311C2D2000330879
:100A0800803AE10081306102031D0C2D5130320221
:100A180003180F2D102D1A2D01302000B2070030B9
:100A2800B33D27158F31782784311C2D2000A7145A
:100A3800200027140800F9002000510886008701CB
:100A4800403FD300413FD400530884005408850038
:100A58001200253A031D312D322D772D51088600BD
:100A680087010130810741310318810AAA01AB01CE
:100A7800AE01AF01FF30AC00FF30AD005108860079
:100A88008701403FD300413FD400530884005408F5
:100A980085001200253A031D522D532D6C2D510847
:100AA800860087010130810741310318810A25300A
:100AB800F6000030F7007908D3005308F8008631B3
:100AC8009426853101302000D1000030D2009A2DC3
:100AD8005108860087010130810741310318810AD6
:100AE800D101D2019A2D510886008701403FD300D9
:100AF800413FD40053088400540885000008D500FD
:100B0800D6015508F6005608F7007908D7005708A7
:100B1800F800863194268531200051088600870127
:100B28000130810741310318810A662D0800200031
:100B3800CD01F61FA02DA12DA82DF509F609F50A5E
:100B48000319F60ACD01CD0AF81FAB2DAC2DB52D32
:100B5800F709F809F70A0319F80A0130F9007908C2
:100B6800CD06CE01CF01750876040319BC2DBD2D25
:100B7800EC2DCC01CC0AC92D0130F535F60D890BC9
:100B8800C12D0130F9007908CC07F61FCC2DCD2DE9
:100B9800C02D0130CE35CF0D890BCE2D76087802C9
:100BA800031DD82D75087702031CDB2DDC2DE12DE4
:100BB8007508F7027608F83B4E140130F636F50C46
:100BC800890BE22D0130CC02031DEB2DEC2DCD2D30
:100BD8004D080319F02DF12DF62DCE09CF09CE0AB7
:100BE8000319CF0A4F08F6004E08F5000800FB016C
:100BF800F81FFF2D002E072EF709F809F70A031929
:100C0800F80AFB01FB0AF61F0A2E0B2E102EF50917
:100C1800F609F50A0319F60A750876040319152E5C
:100C2800162E3F2EFA01FA0A222E0130F535F60D5E
:100C3800890B1A2E0130F9007908FA07F61F252EBC
:100C4800262E192E76087802031D2C2E7508770299
:100C5800031C2F2E302E342E7508F7027608F83B29
:100C68000130F636F50C890B352E0130FA02031DDA
:100C78003E2E3F2E262E7B080319432E442E492E46
:100C8800F709F809F70A0319F80A7808F600770847
:100C9800F50008002000CE004E08031D542E552EE6
:100CA8005B2E25009101701730309304922E653029
:100CB8004E02031C602E612E682EFF302500910025
:100CC800F01630309304922E4E08FB00FC017B088E
:100CD800F5007C08F6000A30F7000030F8008F3184
:100CE800BD27863176082000CD007508CC004D0858
:100CF800FC004C08FB00FC36FB0CFC36FB0C7B08AC
:100D080025009100701620004C080339FB00FB0EEB
:100D1800250013087B06CF397B069300F0150800E1
:100D280078080319982E992E9E2E7808031D9D2E5B
:100D38009E2EA32E76088F313E278631D32E780833
:100D4800033E86008701160001040319AC2EAD2E60
:100D5800CB2E7808033E86008701403F2000CC0058
:100D6800413FCD00780A86008701403FCE00413FD1
:100D7800CF004F08803AD0004D08803A5002031D3A
:100D8800C72E4C084E020318CA2ECB2ED32E780A33
:100D9800860087010130810741310318810A080064
:100DA80021001E1122001708FC39013897009717F7
:100DB800171FDF2EE02EDC2E21009E177C309D04AD
:100DC800A0300032890BE52EFC3021009E051D1451
:100DD8009D149D1CF02EF12EED2E1C08F700F80135
:100DE8007708F800F7017708FA007808FB001B0875
:100DF800F700F8017708FA047808FB042200971333
:100E080021001D107B08F6007A08F500F014080090
:100E18006E3465347734203464346F346F3472340C
:100E28002034733474346134743465342034643455
:100E380065347434653463347434653464342E34FE
:100E4800203447346F3469346E3467342034743452
:100E58006F34203477346134693474342034663420
:100E68006F34723420347034723465346C342E34F8
:100E78002E340D340A3400348034013400347E3486
:100E88000A34B6349E34CA34DC34FC340E34FE34AE
:100E9800DE340034003400340034003400340034CC
:100EA800EE34F8347434BA34F434E4347C34EA3448
:100EB8000A343A34E03470342C34A8347E34E634BE
:100EC800CE346434DC34F0347A347B34FB34EA34A2
:100ED800DA34B63400340034003400341034573473
:100EE80065346C3463346F346D3465342034743451
:100EF8006F3420344B344F34433448342034453431
:100F08006E34673469346E346534653472346934E8
:100F18006E34673420344734613472346434653451
:100F28006E3447346134743465340D340A34003413
:100F38002000DB005908DD005808DC00A801A901E1
:100F4800B62F5C30FA007A08D1005A08FB007B08FB
:100F5800D2005B0885311F25873120005108A8077A
:100F68005208A93D5C0884005D0885001200031D35
:100F7800BE2FBF2FA52F2908D9002808D8000800A0
:100F88002E342E342E346E346F347734203461345A
:100F9800773461346B3465342034643475346534A3
:100FA800203474346F3420347734613474346334C7
:100FB800683464346F3467342034743469346D347D
:100FC800653472340D340A3400344D346934633472
:100FD80072346F3463346834693470342034313493
:100FE80036344C344634313438343234393420349D
:100FF8007334743461347234743469346E346734DD
:101008002034753470342E342E342E340D340A3492
:021018000034A2
:101E18000B122000261708000B162000A617080032
:101E280022000C120C16F1170800210017102000D0
:101E380021140800210017142000A1140800220012
:101E48000E170E1371170800640080010131890B09
:101E5800292F003421001708C1390E3897002000B7
:101E68002117080021001708C139103897002000F1
:101E7800A1160800F5002000111E432F442F3F2F04
:101E8800750823009A002000A117080022009D135E
:101E98001D110C3023009B001E119F119D171F124E
:101EA8001E129E16200022140800783020009C0480
:101EB8001C151C08FC3902389C001C088739383866
:101EC8009C001C157015080021001708C13914382A
:101ED800970094302000DE009030DF008F31982783
:101EE8008F3120002116080021001708C139243835
:101EF80097007A302000DE009030DF008F3198277D
:101F08008F3120002115080021001708C139183821
:101F18009700AC302000DE009030DF008F3198272A
:101F28008F312000A11508006030FC007C082000DB
:101F3800E0005F08D9005E08D8006030FC007C082B
:101F4800DA00003087319C278F310800240094176D
:101F580014171508F039013895001512013095004D
:101F680020009110250094172400951620002215B2
:101F78000800F901FA01751CC22FC32FC72F770873
:101F8800F9077808FA3D0130F735F80D890BC82FA5
:101F98000130F636F50C890BCD2F75087604031D34
:101FA800D62FD72FBF2F7A08F6007908F50008003A
:101FB8002000D0007C082400910022008E140D30EF
:101FC800890BE42F000022008E1020005008240006
:101FD8009100141CF02FF12FED2F110822008E1400
:101FE8000D30890BF52F000022008E108F3123272A
:101FF8008F312000A214080053345434413454342F
:1020080045345F34533454344F3450345F3453348C
:1020180045344E34443449344E3447345F344934BB
:10202800483443345F34503455344C345334453495
:102038000D340A3400345334543441345434453460
:102048005F3444344F344F3452345F34433448346B
:1020580041344E344734453444345F345734413482
:10206800493454345F345034523445344C340D348C
:102078000A3400346E346F3420346E346534773467
:10208800203464346F346F347234203473347434CD
:10209800613474346534203464346534743465349C
:1020A800633474346534643421340D340A340034B0
:1020B800533454344134543445345F3444344F3405
:1020C8004F3452345F3443344834453443344B340A
:1020D8005F34413446345434453452345F345034D8
:1020E800523445344C340D340A3400347334653476
:1020F80074345F34773461347434633468346434EA
:102108006F3467345F34743469346D3465347234D1
:102118005F3432343534363473340D340A34003491
:102128007334653474345F347734613474346334AD
:10213800683464346F3467345F34743469346D34AC
:10214800653472345F34313473340D340A340034F6
:102158007334653474345F3477346134743463347D
:10216800683464346F3467345F34743469346D347C
:10217800653472345F34343473340D340A340034C3
:10218800533454344134543445345F344D34453435
:10219800413453345534523445345F344234413435
:1021A800543454344534523459340D340A340034D8
:1021B80067346F34203473346C3465346534703468
:1021C8002E342E342E3473346C34653465347034C4
:1021D80069346E3467340D340A340A3400345334A5
:1021E80054344134543445345F344E3445345734D0
:1021F8005F3444344F344F3452345F34533454349E
:102208004134543445340D340A340034533454348E
:102218004134543445345F3444344F344F345234A9
:102228005F344334483441344E34473445344434BD
:102238000D340A340034533454344134543445345E
:102248005F344A345534533454345F34413457344A
:1022580041344B34453444340D340A340034533457
:1022680054344134543445345F3444344F344F3457
:1022780052345F3443344C344F345334453444344B
:102288000D340A340034533454344134543445340E
:102298005F3443344834453443344B345F34443436
:1022A8004F344F3452343A34203400345334543495
:1022B8004134543445345F3444344F344F34523409
:1022C8005F344F34503445344E340D340A340034BE
:1022D8006D34653461347334753472346534203444
:1022E80062346134743474346534723479340D343E
:1022F8000A340034533454344134543445345F344C
:1023080053344C3445344534503449344E344734CE
:102318000D340A340034533454344134543445347D
:102328005F34643465346634613475346C347434C1
:062338000D340A340034EC
:020000040001F9
:04000E00EC09FF38C2
:00000001FF
